:100000000C9455000C94ED0A0C9472000C94720040
:100010000C9472000C9472000C9472000C94720098
:100020000C9472000C9472000C9472000C94C90A27
:100030000C9472000C9472000C9472000C94720078
:100040000C94350B0C9472000C9472000C9472009A
:100050000C9472000C9472000C9472000C94720058
:100060000C9472000C9472002D403D482A635F0886
:100070002000303F3106325B334F3466356D367DBC
:100080003707387F396F4177553E536D490674788D
:10009000487645794C3872504F3F6F5C5073433906
:1000A00063586E54645E6874000011241FBECFEF65
:1000B000D4E0DEBFCDBF12E0A0E0B1E0EEE5FBE2B0
:1000C00002C005900D92A235B107D9F712E0A2E562
:1000D000B2E001C01D92A138B107E1F70E943E0EC7
:1000E0000C94AD150C940000A0E0B0E0EAE7F0E05D
:1000F0000C949412DC012B01FA019C91923008F4CB
:1001000039C1EB018881823008F433C1943069F43D
:10011000843009F02FC111969C911197898198170D
:1001200009F428C1AAE2B1E025C1843009F421C153
:100130008230A9F4923009F01DC19A01AD0188E026
:10014000EA010990AE01E90109929E018150C1F7CF
:10015000E201898111969C918923818308C19230A3
:1001600009F407C112962D903C901397EB018A81F8
:100170009B811496AD90BD90CD90DC901797EC804C
:10018000FD800E811F819101281B390BB90137FFBA
:1001900004C066277727621B730B603271050CF071
:1001A00061C0121613066CF537014801062E04C013
:1001B00096948794779467940A94D2F721E030E07C
:1001C00040E050E004C0220F331F441F551F6A95C2
:1001D000D2F721503040404050402E213F21402353
:1001E0005123211531054105510521F021E030E071
:1001F00040E050E079018A01E628F728082919290A
:100200003CC0232BD1F1260E371E35014601062EA8
:1002100004C096948794779467940A94D2F721E067
:1002200030E040E050E004C0220F331F441F551F50
:100230006A95D2F721503040404050402A213B215E
:100240004C215D21211531054105510521F021E0A9
:1002500030E040E050E059016A01A628B728C828DC
:10026000D9280BC0821593052CF01C01AA24BB24AD
:10027000650103C0EE24FF24870111969C91D201F1
:1002800011968C91981709F445C0992339F0A8016B
:1002900097012A193B094C095D0906C0A601950181
:1002A0002E193F09400B510B57FD08C011823382B4
:1002B000228224833583468357831DC081E0818356
:1002C0003382228288279927DC01821B930BA40B9F
:1002D000B50B84839583A683B7830DC0220F331F8C
:1002E000441F551F2483358346835783828193811E
:1002F0000197938382832481358146815781DA0176
:10030000C9010197A109B1098F5F9F4FAF4FBF434B
:1003100028F30BC0918333822282EA0CFB1C0C1D54
:100320001D1DE482F5820683178383E08083248188
:1003300035814681578157FF1AC0C901AA2797FD09
:10034000A095BA2F81709070A070B07056954795A7
:1003500037952795822B932BA42BB52B84839583DC
:10036000A683B78382819381019693838283DF0181
:1003700001C0D201CD01CDB7DEB7E2E10C94B012DD
:10038000A0E2B0E0E6ECF1E00C94A01269837A837D
:100390008B839C832D833E834F835887E9E0EE2E29
:1003A000F12CEC0EFD1ECE010196B7010E946905ED
:1003B0008E010F5E1F4FCE010596B8010E946905A0
:1003C0008A8991E089278A8BC701B801AE01475E0F
:1003D0005F4F0E9474000E949404A096E6E00C9483
:1003E000BC12A0E2B0E0E7EFF1E00C94A012698348
:1003F0007A838B839C832D833E834F835887F9E0D8
:10040000EF2EF12CEC0EFD1ECE010196B7010E94DD
:1004100069058E010F5E1F4FCE010596B8010E943F
:100420006905C701B801AE01475E5F4F0E947400C5
:100430000E949404A096E6E00C94BC12A0E2B0E006
:10044000E4E2F2E00C94941269837A838B839C83B8
:100450002D833E834F835887CE010196BE01675F8F
:100460007F4F0E946905CE010596BE016F5E7F4FEA
:100470000E9469059985923088F089898230C8F098
:10048000943019F4823051F404C0843029F492304D
:1004900081F48AE291E0C6C0923049F420E09A8566
:1004A0008A89981321E02A87CE010996BBC0823041
:1004B00049F420E09A858A89981321E02A8BCE019D
:1004C0004196B0C02D843E844F8458886D887E88C4
:1004D0008F88988CEE24FF248701AA24BB24650111
:1004E00040E050E060E070E0E0E0F0E0C1018170E9
:1004F0009070892BE9F0E60CF71C081D191D9A0174
:10050000AB012A0D3B1D4C1D5D1D80E090E0A0E07D
:10051000B0E0E614F7040805190520F481E090E046
:10052000A0E0B0E0BA01A901480F591F6A1F7B1F64
:10053000AA0CBB1CCC1CDD1C97FE08C081E090E01F
:10054000A0E0B0E0A82AB92ACA2ADB2A3196E03214
:10055000F10549F0660C771C881C991C5694479449
:1005600037942794C3CFFA85EA892B893C898B85F8
:100570009C85280F391F2E5F3F4F17C0CA0181701D
:100580009070892B61F016950795F794E79480E0B9
:1005900090E0A0E0B0E8E82AF92A0A2B1B2B769518
:1005A0006795579547952F5F3F4F77FDE7CF0CC075
:1005B000440F551F661F771F17FD4160EE0CFF1C8F
:1005C000001F111F21503040403090E0590790E04B
:1005D000690790E4790760F32B8F3C8FDB01CA0138
:1005E0008F779070A070B07080349105A105B1052F
:1005F00061F447FD0AC0E114F1040105110529F079
:10060000405C5F4F6F4F7F4F40781A8EFE1711F09E
:1006100081E08A8F4D8F5E8F6F8F78A383E0898F03
:10062000CE0149960E949404A096E2E10C94B01287
:10063000A8E1B0E0EEE1F3E00C94A01269837A83C4
:100640008B839C832D833E834F83588789E0E82EDC
:10065000F12CEC0EFD1ECE010196B7010E9469053A
:100660008E010F5E1F4FCE010596B8010E946905ED
:100670008985823040F08989823028F0C701B8012D
:100680000E94E10501C08FEF6896E6E00C94BC1271
:10069000A8E1B0E0EEE4F3E00C94A01269837A8361
:1006A0008B839C832D833E834F83588789E0E82E7C
:1006B000F12CEC0EFD1ECE010196B7010E946905DA
:1006C0008E010F5E1F4FCE010596B8010E9469058D
:1006D0008985823040F08989823028F0C701B801CD
:1006E0000E94E10501C081E06896E6E00C94BC122E
:1006F000ACE0B0E0EEE7F3E00C94A41269837A83F7
:100700008B839C83CE010196BE016B5F7F4F0E945D
:1007100069058D81823061F1823050F1843021F49D
:100720008E81882351F12EC02F81388537FD20C05E
:100730006E812F3131051CF06623F9F023C08EE164
:1007400090E0821B930B29853A854B855C8504C01C
:1007500056954795379527958A95D2F76623B1F038
:1007600050954095309521953F4F4F4F5F4F0EC0AC
:1007700020E030E040E050E009C02FEF3FEF4FEFC6
:100780005FE704C020E030E040E050E8B901CA0172
:100790002C96E2E00C94C012A8E0B0E0E2EDF3E0A9
:1007A0000C949C127B018C016115710581059105EA
:1007B00019F482E0898360C083E089838EE1C82ECA
:1007C000D12CDC82CB82ED82FE820F831887C80198
:1007D000B7010E944504FC013197F7FF3BC0222777
:1007E00033272E1B3F0B57016801022E04C0D694FD
:1007F000C794B794A7940A94D2F740E050E060E021
:1008000070E081E090E0A0E0B0E004C0880F991FA4
:10081000AA1FBB1F2A95D2F70197A109B1098E2102
:100820009F21A023B1230097A105B10521F041E04C
:1008300050E060E070E04A295B296C297D294D83F6
:100840005E836F8378878EE190E08E1B9F0B9C8385
:100850008B8312C0309781F00E2E04C0EE0CFF1C6B
:10086000001F111F0A94D2F7ED82FE820F831887B2
:10087000CE1ADF0ADC82CB821A82CE0101960E9458
:1008800094042896EAE00C94B812EF92FF920F932A
:100890001F937B018C0180E0E81680E0F80681E080
:1008A000080780E0180788F48FEFE816F1040105C7
:1008B000110531F028F088E090E0A0E0B0E017C02A
:1008C00080E090E0A0E0B0E012C080E0E81680E0B8
:1008D000F80680E0080781E0180728F088E190E03A
:1008E000A0E0B0E004C080E190E0A0E0B0E020E251
:1008F00030E040E050E0281B390B4A0B5B0B04C092
:1009000016950795F794E7948A95D2F7F701EE5C70
:10091000FE4F8081281B310941095109C9011F91EE
:100920000F91FF90EF900895DF92EF92FF920F9357
:100930001F93FC01E480F58006811781D1808081BE
:10094000823048F480E090E0A0E1B0E0E82AF92AA3
:100950000A2B1B2BA5C0843009F49FC0823021F4E0
:10096000EE24FF24870105C0E114F10401051105FF
:1009700019F4E0E0F0E096C0628173819FEF623885
:1009800079070CF05BC022E83FEF261B370B2A31BA
:1009900031052CF020E030E040E050E02AC0B80102
:1009A000A701022E04C076956795579547950A943E
:1009B000D2F781E090E0A0E0B0E004C0880F991F7A
:1009C000AA1FBB1F2A95D2F70197A109B1098E2151
:1009D0009F21A023B1230097A105B10521F081E05B
:1009E00090E0A0E0B0E09A01AB01282B392B4A2B14
:1009F0005B2BDA01C9018F779070A070B0708034E2
:100A00009105A105B10539F427FF09C0205C3F4FCE
:100A10004F4F5F4F04C0215C3F4F4F4F5F4FE0E0AF
:100A2000F0E02030A0E03A07A0E04A07A0E45A072F
:100A300010F0E1E0F0E079018A0127C0603871052B
:100A400064F5FB01E158FF4FD801C7018F77907023
:100A5000A070B07080349105A105B10539F4E7FEAE
:100A60000DC080E490E0A0E0B0E004C08FE390E02F
:100A7000A0E0B0E0E80EF91E0A1F1B1F17FF05C01B
:100A800016950795F794E794319687E016950795A4
:100A9000F794E7948A95D1F705C0EE24FF248701E7
:100AA000EFEFF0E06E2F679566276795902F9F77A1
:100AB000D794DD24D7948E2F8695492F462B582F17
:100AC0005D29B701CA011F910F91FF90EF90DF9050
:100AD0000895FC01DB01408151812281622F6F77F3
:100AE00070E0221F2227221F9381892F880F822BDB
:100AF000282F30E0991F9927991F11969C931197E1
:100B000021153105A9F5411551056105710511F44E
:100B100082E037C082E89FEF13969C938E931297E2
:100B20009A01AB0167E0220F331F441F551F6A95DE
:100B3000D1F783E08C930DC0220F331F441F551F44
:100B400012968D919C911397019713969C938E9377
:100B50001297203080E0380780E0480780E458078B
:100B600058F314962D933D934D935C9317970895E6
:100B70002F3F310579F4411551056105710519F4CF
:100B800084E08C93089564FF03C081E08C9312C0CD
:100B90001C9210C02F57304013963C932E931297FF
:100BA00083E08C9387E0440F551F661F771F8A955B
:100BB000D1F7706414964D935D936D937C93179762
:100BC00008951F93DC01FB019C91923008F447C00B
:100BD0008081823008F443C0943051F411961C9106
:100BE000843099F58181682F70E0611B71093FC0E5
:100BF000843021F0923031F48230B9F18181882340
:100C000089F12DC011961C9111978230F1F08181EC
:100C10001817D9F412962D913C91139782819381E4
:100C20008217930794F028173907BCF014968D911A
:100C30009D910D90BC91A02D2481358146815781D5
:100C4000281739074A075B0718F4112341F00AC037
:100C500082179307A407B50740F4112319F061E048
:100C600070E005C06FEF7FEF02C060E070E0CB0185
:100C70001F910895DF93CF9300D00F92CDB7DEB7C9
:100C80000E942A0880E890E00E94440885EF90E0E6
:100C90000E9444080E942A0881E890E00E944408CB
:100CA0008823C1F381E090E00E947608898381E087
:100CB00090E00E9476088A8380E090E00E947608A7
:100CC0008B830E9437084B81FE01319690E051E3FF
:100CD0009E012D5F3F4F8081982788E097FF03C0DA
:100CE000990F952701C0990F8150C1F73196E217EE
:100CF000F30789F7491721F0E0E070E060E020C0D9
:100D0000398120E06A8170E06C7F7070622B732BF8
:100D100080E090E00E94CC0320E030E04AEF52E413
:100D20000E941E0220E030E040E857E30E941E02CD
:100D300020E030E040EC50E40E94C001E62F692F33
:100D40002E2F372F482F562FB901CA010F900F9021
:100D50000F90CF91DF910895DF93CF9300D00F9242
:100D6000CDB7DEB70E942A0880E890E00E944408D0
:100D700083EF90E00E9444080E942A0881E890E0F6
:100D80000E9444088823C1F381E090E00E94760825
:100D9000898381E090E00E9476088A8380E090E079
:100DA0000E9476088B830E9437084B81FE013196A2
:100DB00090E051E39E012D5F3F4F8081982788E0AE
:100DC00097FF03C0990F952701C0990F8150C1F774
:100DD0003196E217F30789F7491729F0E0E07CE341
:100DE0008CE166E420C0398120E06A8170E06C7F8C
:100DF0007070622B732B80E090E00E94CC0320E0A7
:100E000030E040E857E30E941E0222E538EB4FE253
:100E100053E40E941E0226E636E64BE352E40E94AB
:100E2000C001E62F692F2E2F372F482F562FB901DB
:100E3000CA010F900F900F90CF91DF910895AF925C
:100E4000BF92CF92DF92EF92FF920F931F930E9477
:100E50003A067B018C010E94AC065B016C01C80163
:100E6000B70120E030E040E050E00E9448038823D2
:100E70002CF4E0E070E080E060E03EC0C801B70123
:100E800020E030E048EC52E40E94180318162CF4DD
:100E9000E0E070E088EC62E42FC0C601B50120E01C
:100EA00030E040E050E00E94180318160CF5C6012F
:100EB000B50120E030E040EA52E40E944803882374
:100EC000BCF460E070E088EC91E4A60195010E941A
:100ED000C0012AE939E949E15EEB0E941E029B014B
:100EE000AC01C801B7010E94F101E62F692F04C0CF
:100EF000EE2D7F2D802F612F2E2F372F482F562F2D
:100F0000B901CA011F910F91FF90EF90DF90CF9030
:100F1000BF90AF900895809152028B7F80935202D0
:100F20000E942A0880E890E00E94440886EE90E043
:100F30000E9444088091520290E00E9444080E945E
:100F400037080895809152028460809352020E9473
:100F50002A0880E890E00E94440886EE90E00E9413
:100F600044088091520290E00E9444080E94370891
:100F700008951F93182F0E942A0880E890E00E948D
:100F8000440886EE90E00E944408812F90E00E9481
:100F900044080E9437081F9108950E942A0880E89B
:100FA00090E00E94440887EE90E00E9444080E946E
:100FB0002A0881E890E00E94440880E090E00E94C6
:100FC0007608809352020E94370880915202089559
:100FD0000E942A0880E890E00E9444088EEF90E08A
:100FE0000E9444080E94370880E395E70197F1F7D3
:100FF0000E94CD0780935202089500000000000077
:10100000000000000197C9F70895549A81E090E02C
:101010000E94FD070895549881E090E00E94FD072A
:1010200008955B9881E090E00E94FD0708955B9A27
:1010300081E090E00E94FD0708955C985B985B98C2
:101040005C98539A54980E9417080E9405080E94C1
:101050000B0808950E9417080E940B080E941708A9
:101060000E9405080E9411080E940B0808950E9422
:1010700011080E9405080E9417080E9405080E9496
:1010800017080E940B0808950F931F93CF93DF93C7
:101090008C01C0E0D0E00E94110807FF03C00E944D
:1010A0000B0802C00E9405080E9417082196C8304C
:1010B000D10519F0000F111FEECF0E9411080E94F8
:1010C0000B080E94170809B10E94110810E084E083
:1010D000169507958A95E1F70095109501701070A7
:1010E000C801DF91CF911F910F910895EF92FF9268
:1010F0000F931F93CF93DF937C010E9411080E94EE
:101100000B0800E010E0C0E0D0E0CC0FDD1F0E9433
:1011100017084C9921960E9411080F5F1F4F083045
:10112000110599F7EF2811F00E9405080E94170891
:101130000E941108CE01DF91CF911F910F91FF9076
:10114000EF900895EF92FF920F931F938C017B0114
:101150000E942A08C8010E944408C7010E9444084E
:101160000E942A08C80181600E94440880E090E043
:101170000E947608182F0E943708812F90E01F9157
:101180000F91FF90EF900895CF92DF92EF92FF9230
:101190000F931F938C017B016A010E942A08C801EA
:1011A0000E944408C7010E944408C6010E944408E6
:1011B0000E9437081F910F91FF90EF90DF90CF9022
:1011C0000895249A239A229A209A219A579A569AF5
:1011D000559A269A279A389A399A2C982B982A98B1
:1011E000289829985F985E985D982E982F98409837
:1011F0004198109265021092660210926702109256
:101200006802109253021092540288EC90E090937E
:101210005602809355020895CF93DF939C0140E0DE
:10122000C3E0D0E02115310511F4442379F4C9015C
:101230006AE070E00E946D12E82FF0E0E85BFD4F7D
:101240008081FE01EB59FD4F808304C0FE01EB5904
:10125000FD4F10824F5F2197443039F0C9016AE099
:1012600070E00E946D129B01DDCFDF91CF91089558
:101270000F931F939C01062F142F862F81508430CB
:1012800040F5842F8150843010F123C0411719F0AC
:101290002115310581F0E42FF0E0C9016AE070E02A
:1012A0000E946D12A82FB0E0A85BBD4F8C91EC5945
:1012B000FD4F808305C0E42FF0E0EC59FD4F108214
:1012C000C9016AE070E00E946D129B014150401715
:1012D000E8F61F910F910895CF93DF93EC016150D1
:1012E0006430E0F449914423C9F030E0A62FB0E027
:1012F000AB59BD4F08C0421729F487599F4FFC01D5
:1013000084918C933E5F832F90E0FC01E859FF4F5E
:101310002491222381F76F5F643021F7DF91CF9111
:1013200008951F93162F0E940C091123C9F0153040
:10133000B8F4612F6150962F2FE309C0A92FB0E0B8
:10134000AB59BD4F8C91882309F42C939F5F943047
:10135000A8F3E62FF0E0EB59FD4F80818068808391
:101360001F9108950F931F93162F97FD02C000E061
:1013700004C0909581959F4F01E00E940C091123B4
:10138000C9F01530E0F4612F6150962F2FE309C0AA
:10139000A92FB0E0AB59BD4F8C91882309F42C9351
:1013A0009F5F9430A8F3E62FF0E0EB59FD4F80816A
:1013B00080688083002319F080E4809365021F9188
:1013C0000F910895FF920F931F93162F042FF22E63
:1013D000642F422F0E9438091123D9F01017C8F04A
:1013E000F116B8F0612F6150962F2FE309C0A92F95
:1013F000B0E0AB59BD4F8C91882309F42C939F5FCB
:101400009F15A8F3E62FF0E0EB59FD4F808180682F
:1014100080831F910F91FF900895EF92FF920F9399
:101420001F93162FF42E022F97FD02C0EE2405C045
:10143000909581959F4FEE24E3946F2D402F0E944D
:1014400038091123D9F01F1508F10117F8F0612FA1
:101450006150962F2FE309C0A92FB0E0AB59BD4FC3
:101460008C91882309F42C939F5F9017A8F3E62FA3
:10147000F0E0EB59FD4F808180688083EE2031F0F1
:10148000EF2DF0E0EC59FD4F80E480831F910F9128
:10149000FF90EF90089510925302809354020895A4
:1014A0002C982B982A98289829985F985E985D9890
:1014B0002E982F984098419840915702242F30E061
:1014C000F901EB59FD4FE08150915302852F90E0D7
:1014D000042E02C0959587950A94E2F780FF02C01A
:1014E00090E009C081E090E0042E02C0880F991FAF
:1014F0000A94E2F7982F842F8F5F809357028430ED
:1015000010F0109257028E2FE0FD2C9A81FD2B9A3D
:1015100082FD2A9A83FD289A84FD299A85FD5F9A87
:1015200086FD5E9AE7FD5D9A892F90FD2E9A81FDDA
:101530002F9A82FD409A83FD419A209154022223E2
:10154000A1F0809155029091560201979093560216
:1015500080935502892B49F488EC90E090935602D1
:1015600080935502252720935302089510928500F9
:101570001092840027E833E130938900209388009B
:10158000909361028093600282E080938100459A8B
:1015900008951F920F920FB60F9211248F939F936D
:1015A00010928500109284008091600290916102F7
:1015B0000197909361028093600280916002909104
:1015C0006102892B19F41092810045989F918F91A7
:1015D0000F900FBE0F901F9018951F920F920FB68D
:1015E0000F9211248F939F9380915F02882369F457
:1015F00081E080935E0280917202813029F485B18E
:1016000090E2892785B901C02D98809158028130D8
:10161000A1F4109285001092840087E893E19093E2
:1016200089008093880084E190E090936102809328
:10163000600282E080938100459A9F918F910F9084
:101640000FBE0F901F90189580916E0290E062E09F
:1016500041E022E00E94E20980916D0290E060E0AA
:1016600043E024E00E94E20908951F920F920FB612
:101670000F9211242F933F934F935F936F937F9318
:101680008F939F93AF93BF93EF93FF930E94500A62
:101690000E9405128823A1F0109285001092840008
:1016A00087E893E1909389008093880081E090E03F
:1016B000909361028093600282E080938100459A5A
:1016C000FF91EF91BF91AF919F918F917F916F911A
:1016D0005F914F913F912F910F900FBE0F901F90F0
:1016E0001895AF92BF92CF92DF92EF92FF920F9335
:1016F0001F93DF93CF9300D000D0CDB7DEB77C012E
:1017000000E010E06E010894C11CD11C88ECA82EEA
:10171000B12C15C0B701600F711FC60144E050E045
:101720000E94CB12C60161E00E946C0984EC99E032
:10173000F5013197F1F70197D9F70F5F1F4FF701C7
:1017400001900020E9F73197EE19FF090E171F07E6
:1017500008F30F900F900F900F90CF91DF911F9192
:101760000F91FF90EF90DF90CF90BF90AF900895D2
:101770000F931F93DF93CF9300D000D0CDB7DEB788
:1017800020916F02309170028DB79EB708970FB607
:10179000F8949EBF0FBE8DBFEDB7FEB731968E0198
:1017A0000F5F1F4FADB7BEB712961C930E931197E4
:1017B00080E091E0938382832483158236831782AD
:1017C0000E94DA128DB79EB708960FB6F8949EBFA6
:1017D0000FBE8DBFC80161E00E946C090F900F9091
:1017E0000F900F90CF91DF911F910F9108950F935C
:1017F0001F9381E080935F0283E00E944B0A07E120
:101800000E945C128093590280915902813059F4F0
:1018100080916F028F5F80936F0280916F02883199
:1018200011F410926F0280915902833059F4809123
:101830006F02815080936F0280916F028F3F11F48D
:1018400000936F0280915902823011F412E001C0BE
:1018500011E00E94B80B113099F28CE00E944B0A03
:101860000BE30E945C1280935902809159028130EF
:1018700059F4809170028F5F8093700280917002A2
:101880008C3311F41092700280915902833059F414
:1018900080917002815080937002809170028F3F1E
:1018A00011F40093700280915902823011F410E01B
:1018B00001C012E00E94B80B123099F280916F02C1
:1018C0006091700240E00E94C11010925F0280E0BF
:1018D0000E944B0A1092320281E0809372021F91A3
:1018E0000F9108950F931F93DF93CF9300D000D0F3
:1018F000CDB7DEB72091690230916A028DB79EB7ED
:1019000008970FB6F8949EBF0FBE8DBFEDB7FEB718
:1019100031968E010F5F1F4FADB7BEB712961C9365
:101920000E93119780E091E0938382832483158244
:10193000368317820E94DA128DB79EB708960FB6CB
:10194000F8949EBF0FBE8DBFC80161E00E946C0974
:101950000F900F900F900F90CF91DF911F910F91EB
:1019600008950F931F9381E080935F0283E00E94AC
:101970004B0A07E10E945C12809359028091590240
:10198000813059F4809169028F5F80936902809160
:101990006902883111F410926902809159028330F2
:1019A00059F48091690281508093690280916902A3
:1019B0008F3F11F40093690280915902823011F433
:1019C00012E001C011E00E94720C113099F28CE01B
:1019D0000E944B0A0BE30E945C1280935902809193
:1019E0005902813059F480916A028F5F80936A02B4
:1019F00080916A028C3311F410926A02809159022C
:101A0000833059F480916A02815080936A028091F8
:101A10006A028F3F11F400936A028091590282306A
:101A200011F410E001C012E00E94720C123099F221
:101A300011E01093620210925F0280E00E944B0A54
:101A400010923202109372021F910F910895CF925B
:101A5000DF92EF92FF920F931F93DF93CF9300D00B
:101A600000D0CDB7DEB781E080935F028FE00E94A7
:101A70004B0A03E67E010894E11CF11C99E0C92E93
:101A800091E0D92E0E945C128093590280915902F4
:101A9000813059F480916C028F5F80936C02809149
:101AA0006C02843611F410926C02809159028330DA
:101AB00059F480916C02815080936C0280916C0289
:101AC0008F3F11F400936C0280915902823011F41F
:101AD00012E001C011E080916C0200D000D000D073
:101AE000EDB7FEB73196ADB7BEB71296FC92EE9247
:101AF0001197D382C282848315820E94DA128DB735
:101B00009EB706960FB6F8949EBF0FBE8DBFC70155
:101B100061E00E946C09113009F4B4CF80916C022D
:101B2000282F30E02053384FC90183709070892BE3
:101B300039F4C90164E670E00E946D12892B49F402
:101B4000E0E0F0E0C90160E971E00E946D12892BCC
:101B500011F4E1E0F0E08E2F845E809335028CE09A
:101B60000E944B0A0CE00E945C12809359029091F3
:101B70005902913059F480916D028F5F80936D020C
:101B800080916D028D3010F090936D02809159021A
:101B9000833059F480916D02815080936D02809161
:101BA0006D02882311F400936D02809159028230F6
:101BB00011F413E001C012E00E94240B123099F2DC
:101BC00083E00E944B0A0E945C128093590220918C
:101BD0005902213089F480916E028F5F80936E02EA
:101BE00090916E02E0916D02F0E0ED5CFD4F80811E
:101BF000891710F420936E0280915902833089F482
:101C000080916E02815080936E0280916E028823D3
:101C100041F4E0916D02F0E0ED5CFD4F8081809336
:101C20006E0280915902823011F410E001C013E07D
:101C30008FE090E00E94240B133029F280916E0215
:101C400060916D0240916C020E944A1010925F02F6
:101C500080E00E944B0A81E08093320282E0809310
:101C600072020F900F900F900F90CF91DF911F9104
:101C70000F91FF90EF90DF90CF900895FF920F9318
:101C80001F93CF93DF9389E692E060E070E042E03B
:101C900050E00E94DB14809169028F3F89F487E154
:101CA0008093690289E380936A0210926F02109216
:101CB000700280916F026091700240E00E94C1103A
:101CC00083E085BD16BC91E090936E001092850074
:101CD00010928400109280001092810082E0809324
:101CE0006F009DBB90936900259A3D9A0E94E10880
:101CF0000E941D080E947F1180E60E9438110E94F8
:101D0000E80788E893E128EC30E0F9013197F1F732
:101D10000197D9F784E792E00E94BC1188E893E12B
:101D200028EC30E0F9013197F1F70197D9F7789471
:101D3000109285001092840087E893E190938900C7
:101D40008093880081E090E090936102809360022C
:101D500082E080938100459A80E191E00E94710BBE
:101D600081E080937202FF24F3940E945C128093BE
:101D7000590280916202882361F0F89489E692E02A
:101D800060E070E042E050E00E94EB147894109222
:101D90006202909159029130D1F4809172028F5F6A
:101DA0008093720280917202863011F490937202D5
:101DB000109258021092320280915A0290915B0266
:101DC000069728F480915C028F5F80935C0290916B
:101DD00059029330D1F48091720281508093720243
:101DE00080917202882311F490937202109258022B
:101DF0001092320280915A0290915B02069728F469
:101E000080915D028F5F80935D02809159028230E4
:101E100061F410925C0210925D0210925802F092EE
:101E2000320210925B0210925A0280915C0283305F
:101E300051F480915D02882331F410925C0210927B
:101E40005D020E94F70B80915C02882351F480911F
:101E50005D02833031F410925C0210925D020E94A8
:101E6000270D80915C02833051F480915D028130B6
:101E700031F410925C0210925D020E94B10C8091CC
:101E80005C02813061F480915D02833041F41092F4
:101E90005C0210925D0280E191E00E94710B8091E2
:101EA0007202833081F0843028F4813099F18230DD
:101EB00089F505C08430C9F0853061F523C02D98BF
:101EC0000E94240B29C02D9883E291E061E00E94DA
:101ED0006C09C80160E042E023E00E94E20985E26B
:101EE00091E064E00E946C0917C02D9887E291E0B0
:101EF00061E00E946C09CE0160E043E024E00E94B2
:101F0000E2090AC02D9880E191E00E94710BF092E5
:101F1000720202C00E94B80B80915E02813009F00B
:101F200024CF909132029130B1F480916B028F5F97
:101F300080936B0280916B02843169F4809172020C
:101F40008F5F8093720280917202863011F49093B9
:101F5000720210926B0280915A0290915B02069776
:101F600048F480915A0290915B02019690935B0233
:101F700080935A028FE692E060E772E041E752E018
:101F80000E94E9108EE692E06DE672E04CE652E0C7
:101F90000E94721080916902882361F180916A0227
:101FA000882341F190916F0280916902981761F442
:101FB0009091700280916A02981731F480917102B9
:101FC000882311F4F092580290916F028091690277
:101FD000981781F42091700280916A0230E090E0BD
:101FE00001962817390731F480917102882311F482
:101FF000109258020E94AC060E9478038B010E9446
:102000001F070E947803EB0110925E02AECE282FCC
:1020100022952F709AE0299F900111248F70820FD2
:102020000895482F6AE00E946112282F30E084E072
:10203000220F331F8A95E1F7842F0E946112892FA6
:10204000820F08950F931F930E942A0880ED90E05D
:102050000E94440881E190E00E9444080E942A08FE
:1020600081ED90E00E94440881E090E00E947608B3
:10207000082F80E090E00E947608182F0E94370811
:10208000812F902F60E071E00E948112CB011F919F
:102090000F910895FF920F931F93182F062FF42E80
:1020A0000E942A0880ED90E00E94440884E090E0BD
:1020B0000E944408812F0E94111090E00E94440861
:1020C000802F0E94111090E00E9444088F2D0E94E2
:1020D000111090E00E9444080E9437081F910F9150
:1020E000FF900895AF92BF92CF92DF92EF92FF924E
:1020F0001F937C016B015A010E942A0880ED90E039
:102100000E94440884E090E00E9444080E942A084B
:1021100081ED90E00E94440881E090E00E94760802
:10212000282F22952F701AE0219F900111248F7083
:10213000820FF701808381E090E00E947608282FCB
:1021400022952F70219F900111248F70820FF6012C
:10215000808380E090E00E947608282F22952F70DF
:10216000219F900111248F70820FF50180830E94BE
:1021700037081F91FF90EF90DF90CF90BF90AF9006
:102180000895FF920F931F93F82E062F142F0E948D
:102190002A0880ED90E00E94440880E090E00E94D0
:1021A0004408812F0E94111090E00E944408802F63
:1021B0000E94111090E00E9444088F2D0E9411107F
:1021C00090E00E9444080E9437081F910F91FF90F1
:1021D0000895AF92BF92CF92DF92EF92FF921F933A
:1021E0005C016B017A010E942A0880ED90E00E9458
:1021F000440880E090E00E9444080E942A0881ED93
:1022000090E00E94440881E090E00E947608282F28
:1022100022952F701AE0219F900111248F70820F58
:10222000F701808381E090E00E947608282F2295B4
:102230002F70219F900111248F70820FF6018083EF
:1022400080E090E00E947608282F22952F70219F31
:10225000900111248F70820FF50180830E9437084E
:102260001F91FF90EF90DF90CF90BF90AF900895B7
:102270001F93182F0E942A0880ED90E00E944408C6
:102280008EE090E00E944408812F90E00E94440874
:102290000E9437081F9108950F931F93182F062F40
:1022A0000E942A0880ED90E00E944408812F90E06F
:1022B0000E944408802F90E00E9444080E94370842
:1022C0001F910F9108951F93182F0E942A0880EDE7
:1022D00090E00E944408812F90E00E9444080E94F0
:1022E0002A0881ED90E00E94440880E090E00E947E
:1022F0007608182F0E943708812F1F91089542E019
:1023000050E061E070E087B19B01042E02C0220F13
:10231000331F0A94E2F72095822387B988B12823D6
:1023200028B94F5F5F4F4530510569F7089597B160
:1023300041E050E002C0440F551F8A95E2F7242F78
:10234000942B97B988B12095822388B986B190E003
:1023500084239523892BD1F787B1282327B920E03F
:1023600030E002C02F5F3F4F86B190E08423952379
:10237000892BC1F3C9010895CF92DF92EF92FF92AA
:102380000F931F93CF93DF93EC01198218821B8266
:102390001A821D821C82F894CC247E0182E0D82E01
:1023A000F701008111818D2D0E949711080F191FCF
:1023B000F701019311937F01D394F5E0DF1681F7C4
:1023C000C394CF1651F778948881998165E070E0C5
:1023D0000E946D12798368838A819B8165E070E039
:1023E0000E946D127B836A838C819D8165E070E021
:1023F0000E946D127D836C83DF91CF911F910F91AD
:10240000FF90EF90DF90CF9008958AE792E00E94CE
:10241000BC118091740290917502019620917A020C
:1024200030917B028217930710F040E002C0409188
:1024300040028091760290917702019620917C0271
:1024400030917D028217930710F4409141028091F0
:10245000780290917902019620917E0230917F025C
:102460008217930710F4409142024423A1F0109286
:102470006302809164028A3018F48F5F8093640253
:10248000809164028A30B1F48FE0809364024093BB
:10249000800281E00895809163028A3018F48F5F92
:1024A00080936302809163028A3021F41092640267
:1024B00080E0089580E0089580918002109280026B
:1024C0000895991B79E004C0991F961708F0961B90
:1024D000881F7A95C9F780950895AA1BBB1B51E107
:1024E00007C0AA1FBB1FA617B70710F0A61BB70B84
:1024F000881F991F5A95A9F780959095BC01CD0129
:10250000089597FB092E07260AD077FD04D0E5DF52
:1025100006D000201AF4709561957F4F0895F6F764
:10252000909581959F4F08952F923F924F925F9281
:102530006F927F928F929F92AF92BF92CF92DF92D3
:10254000EF92FF920F931F93CF93DF93CDB7DEB738
:10255000CA1BDB0B0FB6F894DEBF0FBECDBF0994CC
:102560002A88398848885F846E847D848C849B8423
:10257000AA84B984C884DF80EE80FD800C811B8131
:10258000AA81B981CE0FD11D0FB6F894DEBF0FBE60
:10259000CDBFED010895FB01DC014150504048F0F2
:1025A00001900D920020C9F701C01D92415050408A
:1025B000E0F70895AEE0B0E0E0EEF2E10C94A21294
:1025C0000D891E8986E08C831A8309838FEF9FE72C
:1025D0009E838D839E01275E3F4FCE0101966F89BA
:1025E000788DA9010E94FE122F813885020F131FDA
:1025F000F80110822E96E4E00C94BE12ABE0B0E03D
:10260000E4E0F3E10C9494123C012B015A01FC012B
:1026100017821682838181FD03C06FEF7FEFC6C1F1
:102620009AE0892E1E010894211C311CF30123819C
:10263000F20123FD859123FF81912F01882309F465
:10264000B2C1853239F423FD859123FF81912F0199
:10265000853229F490E0B3010E942315E7CF982F2B
:10266000FF24EE249924FFE1FF15D0F09B3269F09E
:102670009C3228F4903259F0933291F40EC09D327E
:1026800049F0903369F441E024C052E0F52A84E037
:10269000F82A28C098E0F92A25C0E0E1FE2A22C0E5
:1026A000F7FC29C0892F80538A3070F4F6FE05C0EC
:1026B000989C902C1124980E15C0E89CE02C1124B5
:1026C000E80EF0E2FF2A0EC09E3229F4F6FC6BC140
:1026D00040E4F42A07C09C3619F450E8F52A02C0F9
:1026E000983649F4F20123FD959123FF91912F0132
:1026F000992309F0B8CF892F8554833018F0805280
:10270000833038F444E050E0A40EB51E5FE35983F3
:102710000FC0933631F0933779F0933509F056C0F6
:1027200020C0F5018081898342E050E0A40EB51EEF
:10273000610101E010E012C0F501C080D180F6FC1B
:1027400003C06FEF7FEF02C0692D70E042E050E000
:10275000A40EB51EC6010E9418158C015FE7F52274
:1027600014C0F501C080D180F6FC03C06FEF7FEF8D
:1027700002C0692D70E042E050E0A40EB51EC60113
:102780000E940D158C0150E8F52AF3FE07C01AC00F
:1027900080E290E0B3010E942315EA948E2D90E030
:1027A00008171907A8F30EC0F601F7FC8591F7FE8C
:1027B00081916F0190E0B3010E942315E110EA942A
:1027C000015010400115110579F7EAC0943611F057
:1027D000993669F5F7FE08C0F50120813181428103
:1027E000538184E090E00AC0F501808191819C01D1
:1027F000442737FD4095542F82E090E0A80EB91E83
:102800009FE6F92257FF09C05095409530952195D4
:102810003F4F4F4F5F4FE0E8FE2ACA01B901A101C7
:102820002AE030E00E944F15D82ED21840C09537CC
:1028300029F41F2D1F7E2AE030E01DC01F2D197FB7
:102840009F3661F0903720F4983509F0ACC00FC086
:10285000903739F0983709F0A6C004C028E030E07E
:102860000AC0106114FD146020E130E004C014FDC2
:10287000166020E132E017FF08C0F5016081718128
:102880008281938144E050E008C0F501808191810C
:10289000BC0180E090E042E050E0A40EB51EA10132
:1028A0000E944F15D82ED2188FE7F82EF122F6FE8F
:1028B0000BC05EEFF522D91438F4F4FE07C0F2FC29
:1028C00005C08FEEF82202C01D2D01C0192DF4FEA7
:1028D0000DC0FE01ED0DF11D8081803319F499EEDC
:1028E000F92208C01F5FF2FE05C003C08F2D867855
:1028F00009F01F5F0F2DF3FC14C0F0FE0FC01E1572
:1029000010F09D2C0BC09D2C9E0C911A1E2D06C004
:1029100080E290E0B3010E9423151F5F1E15C0F3F3
:1029200004C01E1510F4E11A01C0EE2404FF0FC00C
:1029300080E390E0B3010E94231502FF1DC001FD5A
:1029400003C088E790E00EC088E590E00BC0802FC0
:10295000867891F001FF02C08BE201C080E2F7FCB3
:102960008DE290E0B3010E94231506C080E390E061
:10297000B3010E9423159A94D914C0F3DA94F1019B
:10298000ED0DF11D808190E0B3010E942315DD2043
:10299000A9F706C080E290E0B3010E942315EA94F3
:1029A000EE20C1F743CEF30166817781CB012B96F0
:1029B000E2E10C94B012DC01CB01FC01F999FECFED
:1029C00006C0F2BDE1BDF89A319600B40D924150B7
:1029D0005040B8F70895DC01A40FB51F4150504096
:1029E00048F0CB01840F951F2E910E94FC1441509A
:1029F0005040D0F70895262FF999FECF92BD81BDA2
:102A0000F89A019700B4021639F01FBA20BD0FB62C
:102A1000F894FA9AF99A0FBE0895FC010590615056
:102A200070400110D8F7809590958E0F9F1F0895E4
:102A3000FC016150704001900110D8F7809590958D
:102A40008E0F9F1F08950F931F93CF93DF938C01D9
:102A5000EB018B8181FF1BC082FF0DC02E813F8166
:102A60008C819D812817390764F4E881F9810193ED
:102A7000F983E88306C0E885F985802F0995892BBD
:102A800031F48E819F8101969F838E8302C00FEF68
:102A90001FEFC801DF91CF911F910F910895FA01A7
:102AA000AA27283051F1203181F1E8946F936E7F8D
:102AB0006E5F7F4F8F4F9F4FAF4FB1E03ED0B4E07E
:102AC0003CD0670F781F891F9A1FA11D680F791FBF
:102AD0008A1F911DA11D6A0F711D811D911DA11DD0
:102AE00020D009F468943F912AE0269F11243019E0
:102AF000305D3193DEF6CF010895462F4770405D7B
:102B00004193B3E00FD0C9F7F6CF462F4F70405D29
:102B10004A3318F0495D31FD4052419302D0A9F784
:102B2000EACFB4E0A6959795879577956795BA957E
:102B3000C9F700976105710508959B01AC010A2E44
:102B400006945795479537952795BA95C9F7620F1B
:0E2B5000731F841F951FA01D0895F894FFCFDA
:102B5E002530326425303264003230253032640044
:102B6E002020202048454C4C4F20204341535045B7
:102B7E0072200020002A0048200000000000000003
:102B8E00000000010202030303030404040404040E
:102B9E0004040505050505050505050505050505D9
:102BAE0005050606060606060606060606060606B9
:102BBE0006060606060606060606060606060606A7
:102BCE000606070707070707070707070707070789
:102BDE000707070707070707070707070707070777
:102BEE000707070707070707070707070707070767
:102BFE000707070707070707070707070707070757
:102C0E000707080808080808080808080808080838
:102C1E000808080808080808080808080808080826
:102C2E000808080808080808080808080808080816
:102C3E000808080808080808080808080808080806
:102C4E0008080808080808080808080808080808F6
:102C5E0008080808080808080808080808080808E6
:102C6E0008080808080808080808080808080808D6
:102C7E0008080808080808080808080808080808C6
:102C8E00080801001F1C1F1E1F1E1F1F1E1F1E1FB8
:102C9E0001020304050607083F065B4F666D7D07BC
:022CAE007F6F36
:00000001FF
