:100000000C9456000C94EE0A0C9473000C9473003C
:100010000C9473000C9473000C9473000C94730094
:100020000C9473000C9473000C9473000C94CA0A23
:100030000C9473000C9473000C9473000C94730074
:100040000C94B40B0C9473000C9473000C94730018
:100050000C9473000C9473000C9473000C94730054
:100060000C9473000C9473002D403D482A635F0884
:100070002000303F3106325B334F3466356D367DBC
:100080003707387F396F4177553E536D490674788D
:100090004876457946714C3872504F3F6F5C5073CB
:1000A000433963586E54645E6874000011241FBEA7
:1000B000CFEFD4E0DEBFCDBF12E0A0E0B1E0E8E0DA
:1000C000FCE202C005900D92AA36B107D9F712E002
:1000D000AAE6B2E001C01D92AA39B107E1F70E9479
:1000E0003F0E0C9402160C940000A0E0B0E0EBE789
:1000F000F0E00C94E912DC012B01FA019C919230A2
:1001000008F439C1EB018881823008F433C194309E
:1001100069F4843009F02FC111969C91119789815F
:10012000981709F428C1A1E4B1E025C1843009F48D
:1001300021C18230A9F4923009F01DC19A01AD01AC
:1001400088E0EA010990AE01E90109929E0181501F
:10015000C1F7E201898111969C918923818308C1AD
:10016000923009F407C112962D903C901397EB0141
:100170008A819B811496AD90BD90CD90DC901797AD
:10018000EC80FD800E811F819101281B390BB90184
:1001900037FF04C066277727621B730B6032710537
:1001A0000CF061C0121613066CF537014801062EDB
:1001B00004C096948794779467940A94D2F721E0C8
:1001C00030E040E050E004C0220F331F441F551FB1
:1001D0006A95D2F721503040404050402E213F21B7
:1001E00040235123211531054105510521F021E01E
:1001F00030E040E050E079018A01E628F72808293C
:1002000019293CC0232BD1F1260E371E350146019A
:10021000062E04C096948794779467940A94D2F734
:1002200021E030E040E050E004C0220F331F441FC3
:10023000551F6A95D2F721503040404050402A2146
:100240003B214C215D21211531054105510521F04E
:1002500021E030E040E050E059016A01A628B728CB
:10026000C828D9280BC0821593052CF01C01AA249C
:10027000BB24650103C0EE24FF24870111969C91E5
:10028000D20111968C91981709F445C0992339F041
:10029000A80197012A193B094C095D0906C0A6016E
:1002A00095012E193F09400B510B57FD08C01182D3
:1002B0003382228224833583468357831DC081E0A5
:1002C00081833382228288279927DC01821B930B4A
:1002D000A40BB50B84839583A683B7830DC0220F2F
:1002E000331F441F551F24833583468357838281E0
:1002F000938101979383828324813581468157813D
:10030000DA01C9010197A109B1098F5F9F4FAF4F72
:10031000BF4328F30BC0918333822282EA0CFB1C7B
:100320000C1D1D1DE482F5820683178383E0808304
:10033000248135814681578157FF1AC0C901AA27F8
:1003400097FDA095BA2F81709070A070B0705695EF
:10035000479537952795822B932BA42BB52B848318
:100360009583A683B7838281938101969383828349
:10037000DF0101C0D201CD01CDB7DEB7E2E10C94BF
:100380000513A0E2B0E0E7ECF1E00C94F51269830C
:100390007A838B839C832D833E834F835887E9E048
:1003A000EE2EF12CEC0EFD1ECE010196B7010E943F
:1003B0006A058E010F5E1F4FCE010596B8010E949F
:1003C0006A058A8991E089278A8BC701B801AE0145
:1003D000475E5F4F0E9475000E949504A096E6E07C
:1003E0000C941113A0E2B0E0E8EFF1E00C94F512E8
:1003F00069837A838B839C832D833E834F835887C5
:10040000F9E0EF2EF12CEC0EFD1ECE010196B701A6
:100410000E946A058E010F5E1F4FCE010596B8013E
:100420000E946A05C701B801AE01475E5F4F0E9496
:1004300075000E949504A096E6E00C941113A0E2CA
:10044000B0E0E5E2F2E00C94E91269837A838B83F1
:100450009C832D833E834F835887CE010196BE0136
:10046000675F7F4F0E946A05CE010596BE016F5EF1
:100470007F4F0E946A059985923088F08989823081
:10048000C8F0943019F4823051F404C0843029F457
:10049000923081F481E491E0C6C0923049F420E0CA
:1004A0009A858A89981321E02A87CE010996BBC0D4
:1004B000823049F420E09A858A89981321E02A8BBA
:1004C000CE014196B0C02D843E844F8458886D88FB
:1004D0007E888F88988CEE24FF248701AA24BB2471
:1004E000650140E050E060E070E0E0E0F0E0C10174
:1004F00081709070892BE9F0E60CF71C081D191D1E
:100500009A01AB012A0D3B1D4C1D5D1D80E090E062
:10051000A0E0B0E0E614F7040805190520F481E036
:1005200090E0A0E0B0E0BA01A901480F591F6A1F8E
:100530007B1FAA0CBB1CCC1CDD1C97FE08C081E0F5
:1005400090E0A0E0B0E0A82AB92ACA2ADB2A3196B6
:10055000E032F10549F0660C771C881C991C569412
:10056000479437942794C3CFFA85EA892B893C892D
:100570008B859C85280F391F2E5F3F4F17C0CA01FE
:1005800081709070892B61F016950795F794E79428
:1005900080E090E0A0E0B0E8E82AF92A0A2B1B2BC3
:1005A00076956795579547952F5F3F4F77FDE7CF36
:1005B0000CC0440F551F661F771F17FD4160EE0CDE
:1005C000FF1C001F111F21503040403090E05907A0
:1005D00090E0690790E4790760F32B8F3C8FDB0193
:1005E000CA018F779070A070B07080349105A1051A
:1005F000B10561F447FD0AC0E114F10401051105DC
:1006000029F0405C5F4F6F4F7F4F40781A8EFE1786
:1006100011F081E08A8F4D8F5E8F6F8F78A383E01A
:10062000898FCE0149960E949504A096E2E10C9430
:100630000513A8E1B0E0EFE1F3E00C94F512698353
:100640007A838B839C832D833E834F83588789E0F5
:10065000E82EF12CEC0EFD1ECE010196B7010E9492
:100660006A058E010F5E1F4FCE010596B8010E94EC
:100670006A058985823040F08989823028F0C70177
:10068000B8010E94E20501C08FEF6896E6E00C9485
:100690001113A8E1B0E0EFE4F3E00C94F5126983E4
:1006A0007A838B839C832D833E834F83588789E095
:1006B000E82EF12CEC0EFD1ECE010196B7010E9432
:1006C0006A058E010F5E1F4FCE010596B8010E948C
:1006D0006A058985823040F08989823028F0C70117
:1006E000B8010E94E20501C081E06896E6E00C9442
:1006F0001113ACE0B0E0EFE7F3E00C94F91269837A
:100700007A838B839C83CE010196BE016B5F7F4F02
:100710000E946A058D81823061F1823050F184300F
:1007200021F48E81882351F12EC02F81388537FD29
:1007300020C06E812F3131051CF06623F9F023C0F3
:100740008EE190E0821B930B29853A854B855C8571
:1007500004C056954795379527958A95D2F7662315
:10076000B1F050954095309521953F4F4F4F5F4FD9
:100770000EC020E030E040E050E009C02FEF3FEF36
:100780004FEF5FE704C020E030E040E050E8B901FF
:10079000CA012C96E2E00C941513A8E0B0E0E3ED5A
:1007A000F3E00C94F1127B018C0161157105810558
:1007B000910519F482E0898360C083E089838EE12A
:1007C000C82ED12CDC82CB82ED82FE820F8318876B
:1007D000C801B7010E944604FC013197F7FF3BC0F6
:1007E000222733272E1B3F0B57016801022E04C01E
:1007F000D694C794B794A7940A94D2F740E050E0F7
:1008000060E070E081E090E0A0E0B0E004C0880F1C
:10081000991FAA1FBB1F2A95D2F70197A109B109F9
:100820008E219F21A023B1230097A105B10521F0BE
:1008300041E050E060E070E04A295B296C297D29A5
:100840004D835E836F8378878EE190E08E1B9F0BD4
:100850009C838B8312C0309781F00E2E04C0EE0C67
:10086000FF1C001F111F0A94D2F7ED82FE820F8336
:100870001887CE1ADF0ADC82CB821A82CE0101965B
:100880000E9495042896EAE00C940D13EF92FF92D3
:100890000F931F937B018C0180E0E81680E0F8063F
:1008A00081E0080780E0180788F48FEFE816F1046C
:1008B0000105110531F028F088E090E0A0E0B0E0FB
:1008C00017C080E090E0A0E0B0E012C080E0E81641
:1008D00080E0F80680E0080781E0180728F088E14A
:1008E00090E0A0E0B0E004C080E190E0A0E0B0E0E3
:1008F00020E230E040E050E0281B390B4A0B5B0B54
:1009000004C016950795F794E7948A95D2F7F701F6
:10091000E75BFE4F8081281B310941095109C9015C
:100920001F910F91FF90EF900895DF92EF92FF9249
:100930000F931F93FC01E480F58006811781D1801D
:100940008081823048F480E090E0A0E1B0E0E82AC5
:10095000F92A0A2B1B2BA5C0843009F49FC08230D2
:1009600021F4EE24FF24870105C0E114F104010500
:10097000110519F4E0E0F0E096C0628173819FEF09
:10098000623879070CF05BC022E83FEF261B370B7B
:100990002A3131052CF020E030E040E050E02AC060
:1009A000B801A701022E04C0769567955795479523
:1009B0000A94D2F781E090E0A0E0B0E004C0880F94
:1009C000991FAA1FBB1F2A95D2F70197A109B10948
:1009D0008E219F21A023B1230097A105B10521F00D
:1009E00081E090E0A0E0B0E09A01AB01282B392B28
:1009F0004A2B5B2BDA01C9018F779070A070B07021
:100A000080349105A105B10539F427FF09C0205CA8
:100A10003F4F4F4F5F4F04C0215C3F4F4F4F5F4FE1
:100A2000E0E0F0E02030A0E03A07A0E04A07A0E4D0
:100A30005A0710F0E1E0F0E079018A0127C0603840
:100A4000710564F5FB01E158FF4FD801C7018F77AD
:100A50009070A070B07080349105A105B10539F493
:100A6000E7FE0DC080E490E0A0E0B0E004C08FE3BA
:100A700090E0A0E0B0E0E80EF91E0A1F1B1F17FF70
:100A800005C016950795F794E794319687E016957B
:100A90000795F794E7948A95D1F705C0EE24FF24D3
:100AA0008701EFEFF0E06E2F679566276795902F2F
:100AB0009F77D794DD24D7948E2F8695492F462B88
:100AC000582F5D29B701CA011F910F91FF90EF9038
:100AD000DF900895FC01DB01408151812281622F6A
:100AE0006F7770E0221F2227221F9381892F880FA2
:100AF000822B282F30E0991F9927991F11969C93DC
:100B0000119721153105A9F54115510561057105AB
:100B100011F482E037C082E89FEF13969C938E9386
:100B200012979A01AB0167E0220F331F441F551F34
:100B30006A95D1F783E08C930DC0220F331F441FB9
:100B4000551F12968D919C911397019713969C9324
:100B50008E931297203080E0380780E0480780E4C9
:100B6000580758F314962D933D934D935C93179724
:100B700008952F3F310579F441155105610571053F
:100B800019F484E08C93089564FF03C081E08C9392
:100B900012C01C9210C02F57304013963C932E93D6
:100BA000129783E08C9387E0440F551F661F771FD1
:100BB0008A95D1F7706414964D935D936D937C93F1
:100BC000179708951F93DC01FB019C91923008F464
:100BD00047C08081823008F443C0943051F41196AC
:100BE0001C91843099F58181682F70E0611B710937
:100BF0003FC0843021F0923031F48230B9F18181EC
:100C0000882389F12DC011961C9111978230F1F043
:100C100081811817D9F412962D913C9113978281F6
:100C200093818217930794F028173907BCF0149624
:100C30008D919D910D90BC91A02D2481358146818F
:100C40005781281739074A075B0718F4112341F029
:100C50000AC082179307A407B50740F4112319F0BF
:100C600061E070E005C06FEF7FEF02C060E070E010
:100C7000CB011F910895DF93CF9300D00F92CDB792
:100C8000DEB70E942B0880E890E00E94450885EFBF
:100C900090E00E9445080E942B0881E890E00E94A5
:100CA00045088823C1F381E090E00E94770889839A
:100CB00081E090E00E9477088A8380E090E00E94C3
:100CC00077088B830E9438084B81FE01319690E0B3
:100CD00051E39E012D5F3F4F8081982788E097FF69
:100CE00003C0990F952701C0990F8150C1F7319624
:100CF000E217F30789F7491721F0E0E070E060E0C0
:100D000020C0398120E06A8170E06C7F7070622BB6
:100D1000732B80E090E00E94CD0320E030E04AEFAA
:100D200052E40E941F0220E030E040E857E30E94B6
:100D30001F0220E030E040EC50E40E94C101E62FA9
:100D4000692F2E2F372F482F562FB901CA010F9028
:100D50000F900F90CF91DF910895DF93CF9300D044
:100D60000F92CDB7DEB70E942B0880E890E00E947A
:100D7000450883EF90E00E9445080E942B0881E817
:100D800090E00E9445088823C1F381E090E00E9432
:100D90007708898381E090E00E9477088A8380E069
:100DA00090E00E9477088B830E9438084B81FE01F7
:100DB000319690E051E39E012D5F3F4F808198274F
:100DC00088E097FF03C0990F952701C0990F8150C4
:100DD000C1F73196E217F30789F7491729F0E0E0E8
:100DE0007CE38CE166E420C0398120E06A8170E018
:100DF0006C7F7070622B732B80E090E00E94CD03BB
:100E000020E030E040E857E30E941F0222E538EB83
:100E10004FE253E40E941F0226E636E64BE352E41B
:100E20000E94C101E62F692F2E2F372F482F562FF2
:100E3000B901CA010F900F900F90CF91DF910895E3
:100E4000AF92BF92CF92DF92EF92FF920F931F93D8
:100E50000E943B067B018C010E94AD065B016C0188
:100E6000C801B70120E030E040E050E00E944903B3
:100E700088232CF4E0E070E080E060E03EC0C80130
:100E8000B70120E030E048EC52E40E941903181644
:100E90002CF4E0E070E088EC62E42FC0C601B501FC
:100EA00020E030E040E050E00E94190318160CF5F5
:100EB000C601B50120E030E040EA52E40E94490357
:100EC0008823BCF460E070E088EC91E4A601950111
:100ED0000E94C1012AE939E949E15EEB0E941F0243
:100EE0009B01AC01C801B7010E94F201E62F692FF6
:100EF00004C0EE2D7F2D802F612F2E2F372F482FEE
:100F0000562FB901CA011F910F91FF90EF90DF900A
:100F1000CF90BF90AF90089580916A028B7F8093AD
:100F20006A020E942B0880E890E00E94450886EE45
:100F300090E00E94450880916A0290E00E94450876
:100F40000E943808089580916A02846080936A0242
:100F50000E942B0880E890E00E94450886EE90E011
:100F60000E94450880916A0290E00E9445080E9414
:100F7000380808951F93182F0E942B0880E890E0EE
:100F80000E94450886EE90E00E944508812F90E07F
:100F90000E9445080E9438081F9108950E942B085E
:100FA00080E890E00E94450887EE90E00E944508A6
:100FB0000E942B0881E890E00E94450880E090E0C4
:100FC0000E94770880936A020E94380880916A0222
:100FD00008950E942B0880E890E00E9445088EEF5B
:100FE00090E00E9445080E94380880E395E7019749
:100FF000F1F70E94CE0780936A0208950000000076
:101000000000000000000197C9F70895549A81E09C
:1010100090E00E94FE070895549881E090E00E94BD
:10102000FE0708955B9881E090E00E94FE07089516
:101030005B9A81E090E00E94FE0708955C985B98BF
:101040005B985C98539A54980E9418080E9406086E
:101050000E940C0808950E9418080E940C080E9423
:1010600018080E9406080E9412080E940C080895A1
:101070000E9412080E9406080E9418080E94060892
:101080000E9418080E940C0808950F931F93CF9395
:10109000DF938C01C0E0D0E00E94120807FF03C07C
:1010A0000E940C0802C00E9406080E94180821969F
:1010B000C830D10519F0000F111FEECF0E941208A1
:1010C0000E940C080E94180809B10E94120810E042
:1010D00084E0169507958A95E1F7009510950170C3
:1010E0001070C801DF91CF911F910F910895EF9279
:1010F000FF920F931F93CF93DF937C010E941208FE
:101100000E940C0800E010E0C0E0D0E0CC0FDD1F32
:101110000E9418084C9921960E9412080F5F1F4FD9
:101120000830110599F7EF2811F00E9406080E9477
:1011300018080E941208CE01DF91CF911F910F91E4
:10114000FF90EF900895EF92FF920F931F938C0101
:101150007B010E942B08C8010E944508C7010E941C
:1011600045080E942B08C80181600E94450880E064
:1011700090E00E947708182F0E943808812F90E095
:101180001F910F91FF90EF900895CF92DF92EF9211
:10119000FF920F931F938C017B016A010E942B0821
:1011A000C8010E944508C7010E944508C6010E9467
:1011B00045080E9438081F910F91FF90EF90DF9033
:1011C000CF900895249A239A229A209A219A579A86
:1011D000569A559A269A279A389A399A2C982B9883
:1011E0002A98289829985F985E985D982E982F984D
:1011F0004098419810927D0210927E0210927F02D8
:101200001092800210926B0210926C0288EC90E0B7
:1012100090936E0280936D020895CF93DF939C01AB
:1012200040E0C3E0D0E02115310511F4442379F406
:10123000C9016AE070E00E94C212E82FF0E0E15AB2
:10124000FD4F8081FE01E358FD4F808304C0FE0105
:10125000E358FD4F10824F5F2197443039F0C901A8
:101260006AE070E00E94C2129B01DDCFDF91CF9156
:1012700008950F931F939C01062F142F862F8150E2
:10128000843040F5842F8150843010F123C0411701
:1012900019F02115310581F0E42FF0E0C9016AE071
:1012A00070E00E94C212A82FB0E0A15ABD4F8C91ED
:1012B000E458FD4F808305C0E42FF0E0E458FD4F73
:1012C0001082C9016AE070E00E94C2129B01415085
:1012D0004017E8F61F910F910895CF93DF93EC012B
:1012E00061506430E0F449914423C9F030E0A62F06
:1012F000B0E0A358BD4F08C0421729F487599F4F4B
:10130000FC0184918C933E5F832F90E0FC01E859AF
:10131000FF4F2491222381F76F5F643021F7DF9123
:10132000CF9108951F93162F0E940D091123C9F024
:101330001530B8F4612F6150962F2FE309C0A92F03
:10134000B0E0A358BD4F8C91882309F42C939F5F84
:101350009430A8F3E62FF0E0E358FD4F80818068D9
:1013600080831F9108950F931F93162F97FD02C03E
:1013700000E004C0909581959F4F01E00E940D0907
:101380001123C9F01530E0F4612F6150962F2FE33F
:1013900009C0A92FB0E0A358BD4F8C91882309F450
:1013A0002C939F5F9430A8F3E62FF0E0E358FD4FB5
:1013B000808180688083002319F080E480937D021F
:1013C0001F910F910895FF920F931F93162F042FD3
:1013D000F22E642F422F0E9439091123D9F01017E1
:1013E000C8F0F116B8F0612F6150962F2FE309C0B5
:1013F000A92FB0E0A358BD4F8C91882309F42C93FA
:101400009F5F9F15A8F3E62FF0E0E358FD4F808122
:10141000806880831F910F91FF900895EF92FF9253
:101420000F931F93162FF42E022F97FD02C0EE2468
:1014300005C0909581959F4FEE24E3946F2D402F2A
:101440000E9439091123D9F01F1508F10117F8F08E
:10145000612F6150962F2FE309C0A92FB0E0A35848
:10146000BD4F8C91882309F42C939F5F9017A8F3AC
:10147000E62FF0E0E358FD4F808180688083EE2006
:1014800031F0EF2DF0E0E458FD4F80E480831F91B0
:101490000F91FF90EF90089510926B0280936C0271
:1014A00008952C982B982A98289829985F985E98E8
:1014B0005D982E982F984098419840916F02242F64
:1014C00030E0F901E358FD4FE08150916B02852F28
:1014D00090E0042E02C0959587950A94E2F780FF6C
:1014E00002C090E009C081E090E0042E02C0880FA5
:1014F000991F0A94E2F7982F842F8F5F80936F02D1
:10150000843010F010926F028E2FE0FD2C9A81FD36
:101510002B9A82FD2A9A83FD289A84FD299A85FDBB
:101520005F9A86FD5E9AE7FD5D9A892F90FD2E9A5F
:1015300081FD2F9A82FD409A83FD419A20916C0291
:101540002223A1F080916D0290916E0201979093F9
:101550006E0280936D02892B49F488EC90E09093A1
:101560006E0280936D02252720936B0208951092DE
:1015700085001092840027E833E13093890020939E
:101580008800909379028093780282E080938100B2
:10159000459A08951F920F920FB60F9211248F93C0
:1015A0009F93109285001092840080917802909110
:1015B0007902019790937902809378028091780262
:1015C00090917902892B19F41092810045989F918E
:1015D0008F910F900FBE0F901F9018951F920F9232
:1015E0000FB60F9211248F939F93809177028823D7
:1015F00069F481E08093760280918B02813029F436
:1016000085B190E2892785B901C02D98809170023B
:101610008130A1F4109285001092840087E893E154
:10162000909389008093880084E190E09093790200
:101630008093780282E080938100459A9F918F91F8
:101640000F900FBE0F901F9018950F931F93DF936D
:10165000CF9300D000D0CDB7DEB720918802309173
:1016600089028DB79EB708970FB6F8949EBF0FBE3C
:101670008DBFEDB7FEB731968E010F5F1F4FADB72F
:10168000BEB712961C930E93119780E091E093835E
:10169000828324831582368317820E942F138DB78D
:1016A0009EB708960FB6F8949EBF0FBE8DBFC801B7
:1016B00061E00E946D090F900F900F900F90CF91F5
:1016C000DF911F910F9108950F931F93DF93CF9395
:1016D00000D000D0CDB7DEB72091810230918202D8
:1016E0008DB79EB708970FB6F8949EBF0FBE8DBFFB
:1016F000EDB7FEB731968E010F5F1F4FADB7BEB786
:1017000012961C930E93119780E091E0938382834D
:1017100024831582368317820E942F138DB79EB7BC
:1017200008960FB6F8949EBF0FBE8DBFC80161E04A
:101730000E946D090F900F900F900F90CF91DF9145
:101740001F910F9108958091870290E062E041E03F
:1017500022E00E94E3098091860290E060E043E08D
:1017600024E00E94E30908951F920F920FB60F9292
:1017700011242F933F934F935F936F937F938F9396
:101780009F93AF93BF93EF93FF930E94510A0E94E0
:101790005A128823A1F0109285001092840087E8E5
:1017A00093E1909389008093880081E090E090938A
:1017B00079028093780282E080938100459AFF91BC
:1017C000EF91BF91AF919F918F917F916F915F91B9
:1017D0004F913F912F910F900FBE0F901F90189532
:1017E000AF92BF92CF92DF92EF92FF920F931F932F
:1017F000DF93CF9300D000D0CDB7DEB77C0100E0FF
:1018000010E06E010894C11CD11C88ECA82EB12CEC
:1018100015C0B701600F711FC60144E050E00E947F
:101820002013C60161E00E946D0984EC99E0F50186
:101830003197F1F70197D9F70F5F1F4FF70101902B
:101840000020E9F73197EE19FF090E171F0708F37B
:101850000F900F900F900F90CF91DF911F910F91EC
:10186000FF90EF90DF90CF90BF90AF9008950F93CF
:101870001F9381E08093770283E00E944C0A07E186
:101880000E94B1128093710280917102813059F4EB
:10189000809188028F5F80938802809188028831CE
:1018A00011F41092880280917102833059F4809172
:1018B0008802815080938802809188028F3F11F4C2
:1018C0000093880280917102823011F412E001C00D
:1018D00011E00E94250B113099F28CE00E944C0A15
:1018E0000BE30E94B11280937102809171028130EA
:1018F00059F4809189028F5F8093890280918902D7
:101900008C3311F41092890280917102833059F462
:1019100080918902815080938902809189028F3F52
:1019200011F40093890280917102823011F410E069
:1019300001C012E00E94250B123099F280918802BA
:101940006091890240E00E9416111092770280E0B7
:101950000E944C0A1092490281E080938B021F91F1
:101960000F9108950F931F9381E08093770283E096
:101970000E944C0A07E10E94B1128093710280918B
:101980007102813059F4809181028F5F80938102CE
:1019900080918102883111F410928102809171024C
:1019A000833059F48091810281508093810280912B
:1019B00081028F3F11F40093810280917102823085
:1019C00011F412E001C011E00E94640B113099F291
:1019D0008CE00E944C0A0BE30E94B11280937102CA
:1019E00080917102813059F4809182028F5F8093DF
:1019F0008202809182028C3311F4109282028091D3
:101A00007102833059F48091820281508093820266
:101A1000809182028F3F11F40093820280917102C3
:101A2000823011F410E001C012E00E94640B123009
:101A300099F211E010937A021092770280E00E94EE
:101A40004C0A1092490210938B021F910F91089536
:101A5000CF92DF92EF92FF920F931F93DF93CF937A
:101A600000D000D0CDB7DEB781E0809377028FE061
:101A70000E944C0A03E67E010894E11CF11C99E0E7
:101A8000C92E91E0D92E0E94B112809371028091EB
:101A90007102813059F4809185028F5F80938502B5
:101AA00080918502843611F4109285028091710232
:101AB000833059F480918502815080938502809112
:101AC00085028F3F11F4009385028091710282306C
:101AD00011F412E001C011E08091850200D000D025
:101AE00000D0EDB7FEB73196ADB7BEB71296FC92F7
:101AF000EE921197D382C282848315820E942F13A3
:101B00008DB79EB706960FB6F8949EBF0FBE8DBFD9
:101B1000C70161E00E946D09113009F4B4CF8091D2
:101B20008502282F30E02053384FC9018370907010
:101B3000892B39F4C90164E670E00E94C212892B36
:101B400049F4E0E0F0E0C90160E971E00E94C212EE
:101B5000892B11F4E1E0F0E08E2F845E80934C023B
:101B60008CE00E944C0A0CE00E94B112809371023A
:101B700090917102913059F4809186028F5F809329
:101B80008602809186028D3010F0909386028091BB
:101B90007102833059F480918602815080938602CD
:101BA00080918602882311F400938602809171024D
:101BB000823011F413E001C012E00E94A30B123036
:101BC00099F283E00E944C0A0E94B1128093710244
:101BD00020917102213089F4809187028F5F809378
:101BE000870290918702E0918602F0E0E65BFD4F6C
:101BF0008081891710F420938702809171028330CD
:101C000089F48091870281508093870280918702B6
:101C1000882341F4E0918602F0E0E65BFD4F80818D
:101C20008093870280917102823011F410E001C02C
:101C300013E08FE090E00E94A30B133029F2809113
:101C4000870260918602409185020E949F10109247
:101C5000770280E00E944C0A81E08093490282E092
:101C600080938B020F900F900F900F90CF91DF9188
:101C70001F910F91FF90EF90DF90CF9008958F927A
:101C80009F92AF92BF92CF92DF92EF92FF920F930B
:101C90001F93DF93CF93CDB7DEB7A8970FB6F89415
:101CA000DEBF0FBECDBF81E892E060E070E043E0B0
:101CB00050E00E943015809181028F3F79F410929C
:101CC0008102109282021092880210928902809101
:101CD00088026091890240E00E94161183E085BD70
:101CE00016BC91E090936E001092850010928400D3
:101CF000109280001092810082E080936F009DBB63
:101D000090936900259A3D9A0E94E2080E941E085D
:101D10000E94D41180E60E948D110E94E90788E894
:101D200093E128EC30E0F9013197F1F70197D9F709
:101D30008DE892E00E94111288E893E128EC30E0EF
:101D4000F9013197F1F70197D9F77894109285004E
:101D50001092840087E893E1909389008093880033
:101D600081E090E0909379028093780282E0809302
:101D70008100459A80E191E00E94F00B81E0809320
:101D80008B0234E0C32EDD24D3945E010894A11CA1
:101D9000B11C2AE2822E21E0922E0E94B112809381
:101DA000710280917A02882361F0F89481E892E0D0
:101DB00060E070E043E050E00E944015789410929B
:101DC0007A02909171029130D1F480918B028F5FF1
:101DD00080938B0280918B02863011F490938B025A
:101DE00010927002109249028091720290917302D7
:101DF000069728F4809174028F5F8093740280911B
:101E000071028330D1F480918B02815080938B02D8
:101E100080918B02882311F4C0928B021092700281
:101E2000109249028091720290917302069728F4F1
:101E3000809175028F5F809375028091710282306C
:101E400061F4109274021092750210927002D09296
:101E500049021092730210927202809174028330D0
:101E600051F480917502882331F41092740210921B
:101E700075020E94370C80917402882351F480917E
:101E80007502833031F410927402109275020E9430
:101E9000280D80917402833051F480917502813055
:101EA00031F410927402109275020E94B20C90915B
:101EB00074029130C9F5809175028330A9F51092B2
:101EC00074021092750280918302882319F4909312
:101ED000830202C01092830280918302882319F04A
:101EE00083E291E002C086E291E000D000D000D011
:101EF000EDB7FEB73196ADB7BEB71296BC92AE92B3
:101F0000119793828282958384830E942F13D092AB
:101F10007A028DB79EB706960FB6F8949EBF0FBE95
:101F20008DBFC5010E94F00B80918B02833091F030
:101F3000843038F4813009F442C0823009F03FC067
:101F400005C0843019F18530D1F52DC02D980E943F
:101F5000A30B37C02D9889E391E061E00E946D09E1
:101F600017FF03C08BE391E002C089E391E061E0D9
:101F70000E946D09C80160E042E023E00E94E3098D
:101F80008DE391E064E00E946D091BC02D988FE302
:101F900091E061E00E946D09C70160E042E024E049
:101FA0000E94E3090EC080918302813029F42D98AC
:101FB00080E191E00E94F00BD0928B0202C00E945F
:101FC000250B80917602813009F0E7CE909149028D
:101FD0009130B1F4809184028F5F8093840280916C
:101FE0008402843169F480918B028F5F80938B022D
:101FF00080918B02863011F490938B0210928402B0
:102000008091720290917302069748F48091720257
:10201000909173020196909373028093720288E804
:1020200092E069E872E04AE852E00E943E1187E8D7
:1020300092E066E872E045E852E00E94C7108091A5
:102040008102882361F180918202882341F190917D
:10205000880280918102981761F4909189028091A1
:102060008202981731F480918A02882311F4D09269
:1020700070029091880280918102981781F42091DA
:1020800089028091820230E090E00196281739079A
:1020900031F480918A02882311F4109270020E9418
:1020A000AD060E9479038B010E9420070E947903EC
:1020B0007B011092760271CE282F22952F709AE024
:1020C000299F900111248F70820F0895482F6AE094
:1020D0000E94B612282F30E084E0220F331F8A9529
:1020E000E1F7842F0E94B612892F820F08950F9373
:1020F0001F930E942B0880ED90E00E94450881E12B
:1021000090E00E9445080E942B0881ED90E00E941B
:10211000450881E090E00E947708082F80E090E079
:102120000E947708182F0E943808812F902F60E0B6
:1021300071E00E94D612CB011F910F910895FF927A
:102140000F931F93182F062FF42E0E942B0880ED5B
:1021500090E00E94450884E090E00E944508812FAD
:102160000E94661090E00E944508802F0E94661031
:1021700090E00E9445088F2D0E94661090E00E941A
:1021800045080E9438081F910F91FF900895AF9263
:10219000BF92CF92DF92EF92FF921F937C016B016F
:1021A0005A010E942B0880ED90E00E94450884E0CF
:1021B00090E00E9445080E942B0881ED90E00E946B
:1021C000450881E090E00E947708282F22952F7023
:1021D0001AE0219F900111248F70820FF7018083F4
:1021E00081E090E00E947708282F22952F70219F90
:1021F000900111248F70820FF601808380E090E0BF
:102200000E947708282F22952F70219F900111247A
:102210008F70820FF50180830E9438081F91FF9014
:10222000EF90DF90CF90BF90AF900895FF920F9303
:102230001F93F82E062F142F0E942B0880ED90E09C
:102240000E94450880E090E00E944508812F0E948E
:10225000661090E00E944508802F0E94661090E072
:102260000E9445088F2D0E94661090E00E9445084C
:102270000E9438081F910F91FF900895AF92BF926E
:10228000CF92DF92EF92FF921F935C016B017A0174
:102290000E942B0880ED90E00E94450880E090E0CD
:1022A0000E9445080E942B0881ED90E00E9445089D
:1022B00081E090E00E947708282F22952F701AE085
:1022C000219F900111248F70820FF701808381E09C
:1022D00090E00E947708282F22952F70219F90016F
:1022E00011248F70820FF601808380E090E00E94BD
:1022F0007708282F22952F70219F900111248F702D
:10230000820FF50180830E9438081F91FF90EF90A3
:10231000DF90CF90BF90AF9008951F93182F0E9429
:102320002B0880ED90E00E9445088EE090E00E942E
:102330004508812F90E00E9445080E9438081F91AF
:1023400008950F931F93182F062F0E942B0880EDDE
:1023500090E00E944508812F90E00E944508802F60
:1023600090E00E9445080E9438081F910F9108953F
:102370001F93182F0E942B0880ED90E00E944508C3
:10238000812F90E00E9445080E942B0881ED90E08B
:102390000E94450880E090E00E947708182F0E9474
:1023A0003808812F1F91089542E050E061E070E00D
:1023B00087B19B01042E02C0220F331F0A94E2F75B
:1023C0002095822387B988B1282328B94F5F5F4FB2
:1023D0004530510569F7089597B141E050E002C0DA
:1023E000440F551F8A95E2F7242F942B97B988B193
:1023F0002095822388B986B190E084239523892B88
:10240000D1F787B1282327B920E030E002C02F5F41
:102410003F4F86B190E084239523892BC1F3C901F6
:102420000895CF92DF92EF92FF920F931F93CF9375
:10243000DF93EC01198218821B821A821D821C8292
:10244000F894CC247E0182E0D82EF701008111811E
:102450008D2D0E94EC11080F191FF70101931193A4
:102460007F01D394F5E0DF1681F7C394CF1651F7BF
:1024700078948881998165E070E00E94C212798326
:1024800068838A819B8165E070E00E94C2127B8331
:102490006A838C819D8165E070E00E94C2127D8319
:1024A0006C83DF91CF911F910F91FF90EF90DF90A0
:1024B000CF90089583E992E00E94111280918D02DD
:1024C00090918E020196209193023091940282178E
:1024D000930710F040E002C04091570280918F02B4
:1024E0009091900201962091950230919602821768
:1024F000930710F4409158028091910290919202BA
:10250000019620919702309198028217930710F458
:10251000409159024423A1F010927B0280917C02E9
:102520008A3018F48F5F80937C0280917C028A301D
:10253000B1F48FE080937C024093990281E008958A
:1025400080917B028A3018F48F5F80937B028091A8
:102550007B028A3021F410927C0280E0089580E0B2
:10256000089580919902109299020895991B79E03B
:1025700004C0991F961708F0961B881F7A95C9F713
:1025800080950895AA1BBB1B51E107C0AA1FBB1F62
:10259000A617B70710F0A61BB70B881F991F5A95EF
:1025A000A9F780959095BC01CD01089597FB092E60
:1025B00007260AD077FD04D0E5DF06D000201AF404
:1025C000709561957F4F0895F6F7909581959F4F8F
:1025D00008952F923F924F925F926F927F928F92C7
:1025E0009F92AF92BF92CF92DF92EF92FF920F93A2
:1025F0001F93CF93DF93CDB7DEB7CA1BDB0B0FB6AC
:10260000F894DEBF0FBECDBF09942A883988488868
:102610005F846E847D848C849B84AA84B984C884FE
:10262000DF80EE80FD800C811B81AA81B981CE0FF5
:10263000D11D0FB6F894DEBF0FBECDBFED010895DA
:10264000FB01DC014150504048F001900D92002008
:10265000C9F701C01D9241505040E0F70895AEE027
:10266000B0E0E5E3F3E10C94F7120D891E8986E0F2
:102670008C831A8309838FEF9FE79E838D839E014E
:10268000275E3F4FCE0101966F89788DA9010E9488
:1026900053132F813885020F131FF80110822E96D5
:1026A000E4E00C941313ABE0B0E0E9E5F3E10C9443
:1026B000E9123C012B015A01FC0117821682838129
:1026C00081FD03C06FEF7FEFC6C19AE0892E1E0126
:1026D0000894211C311CF3012381F20123FD859113
:1026E00023FF81912F01882309F4B2C1853239F487
:1026F00023FD859123FF81912F01853229F490E0FC
:10270000B3010E947815E7CF982FFF24EE24992477
:10271000FFE1FF15D0F09B3269F09C3228F4903233
:1027200059F0933291F40EC09D3249F0903369F420
:1027300041E024C052E0F52A84E0F82A28C098E05D
:10274000F92A25C0E0E1FE2A22C0F7FC29C0892F22
:1027500080538A3070F4F6FE05C0989C902C1124AA
:10276000980E15C0E89CE02C1124E80EF0E2FF2A38
:102770000EC09E3229F4F6FC6BC140E4F42A07C077
:102780009C3619F450E8F52A02C0983649F4F20153
:1027900023FD959123FF91912F01992309F0B8CF43
:1027A000892F8554833018F08052833038F444E008
:1027B00050E0A40EB51E5FE359830FC0933631F08D
:1027C000933779F0933509F056C020C0F501808128
:1027D000898342E050E0A40EB51E610101E010E0E3
:1027E00012C0F501C080D180F6FC03C06FEF7FEF0F
:1027F00002C0692D70E042E050E0A40EB51EC60193
:102800000E946D158C015FE7F52214C0F501C080B0
:10281000D180F6FC03C06FEF7FEF02C0692D70E03E
:1028200042E050E0A40EB51EC6010E9462158C0164
:1028300050E8F52AF3FE07C01AC080E290E0B30129
:102840000E947815EA948E2D90E008171907A8F3D6
:102850000EC0F601F7FC8591F7FE81916F0190E0C3
:10286000B3010E947815E110EA940150104001155F
:10287000110579F7EAC0943611F0993669F5F7FE3B
:1028800008C0F501208131814281538184E090E0CC
:102890000AC0F501808191819C01442737FD409554
:1028A000542F82E090E0A80EB91E9FE6F92257FF50
:1028B00009C050954095309521953F4F4F4F5F4F40
:1028C000E0E8FE2ACA01B901A1012AE030E00E9435
:1028D000A415D82ED21840C0953729F41F2D1F7E7D
:1028E0002AE030E01DC01F2D197F9F3661F0903720
:1028F00020F4983509F0ACC00FC0903739F0983704
:1029000009F0A6C004C028E030E00AC0106114FD40
:10291000146020E130E004C014FD166020E132E0D4
:1029200017FF08C0F501608171818281938144E0C5
:1029300050E008C0F50180819181BC0180E090E009
:1029400042E050E0A40EB51EA1010E94A415D82EAD
:10295000D2188FE7F82EF122F6FE0BC05EEFF522BB
:10296000D91438F4F4FE07C0F2FC05C08FEEF8224B
:1029700002C01D2D01C0192DF4FE0DC0FE01ED0D8C
:10298000F11D8081803319F499EEF92208C01F5F90
:10299000F2FE05C003C08F2D867809F01F5F0F2D52
:1029A000F3FC14C0F0FE0FC01E1510F09D2C0BC0E0
:1029B0009D2C9E0C911A1E2D06C080E290E0B30162
:1029C0000E9478151F5F1E15C0F304C01E1510F479
:1029D000E11A01C0EE2404FF0FC080E390E0B301D0
:1029E0000E94781502FF1DC001FD03C088E790E03A
:1029F0000EC088E590E00BC0802F867891F001FF33
:102A000002C08BE201C080E2F7FC8DE290E0B301EE
:102A10000E94781506C080E390E0B3010E9478150B
:102A20009A94D914C0F3DA94F101ED0DF11D80816F
:102A300090E0B3010E947815DD20A9F706C080E27E
:102A400090E0B3010E947815EA94EE20C1F743CEDE
:102A5000F30166817781CB012B96E2E10C9405139B
:102A6000DC01CB01FC01F999FECF06C0F2BDE1BD4E
:102A7000F89A319600B40D9241505040B8F708953D
:102A8000DC01A40FB51F4150504048F0CB01840F2A
:102A9000951F2E910E94511541505040D0F7089536
:102AA000262FF999FECF92BD81BDF89A019700B407
:102AB000021639F01FBA20BD0FB6F894FA9AF99AA7
:102AC0000FBE0895FC010590615070400110D8F7C9
:102AD000809590958E0F9F1F0895FC016150704066
:102AE00001900110D8F7809590958E0F9F1F089543
:102AF0000F931F93CF93DF938C01EB018B8181FFA9
:102B00001BC082FF0DC02E813F818C819D812817C3
:102B1000390764F4E881F9810193F983E88306C0F9
:102B2000E885F985802F0995892B31F48E819F8165
:102B300001969F838E8302C00FEF1FEFC801DF91C4
:102B4000CF911F910F910895FA01AA27283051F1D2
:102B5000203181F1E8946F936E7F6E5F7F4F8F4FCE
:102B60009F4FAF4FB1E03ED0B4E03CD0670F781F2D
:102B7000891F9A1FA11D680F791F8A1F911DA11D12
:102B80006A0F711D811D911DA11D20D009F468944B
:102B90003F912AE0269F11243019305D3193DEF6F3
:102BA000CF010895462F4770405D4193B3E00FD0A9
:102BB000C9F7F6CF462F4F70405D4A3318F0495D94
:102BC00031FD4052419302D0A9F7EACFB4E0A69577
:102BD0009795879577956795BA95C9F70097610599
:102BE000710508959B01AC010A2E069457954795EF
:102BF00037952795BA95C9F7620F731F841F951FE4
:082C0000A01D0895F894FFCF18
:102C08002530326425303264003230253032640099
:102C18002020202048454C4C4F202043415350450C
:102C28007220004F6E004F4646002020202043416E
:102C380053504572202573200020002D002A00489B
:102C4800000000000000000000000102020303036E
:102C58000304040404040404040505050505050526
:102C68000505050505050505050606060606060605
:102C780006060606060606060606060606060606EC
:102C880006060606060606060607070707070707D5
:102C980007070707070707070707070707070707BC
:102CA80007070707070707070707070707070707AC
:102CB800070707070707070707070707070707079C
:102CC8000707070707070707070808080808080885
:102CD800080808080808080808080808080808086C
:102CE800080808080808080808080808080808085C
:102CF800080808080808080808080808080808084C
:102D0800080808080808080808080808080808083B
:102D1800080808080808080808080808080808082B
:102D2800080808080808080808080808080808081B
:102D3800080808080808080808080808080808080B
:102D480008080808080808080801001F1C1F1E1F9B
:102D58001E1F1F1E1F1E1F01020304050607083F32
:0A2D6800065B4F666D7D077F6F006C
:00000001FF
